:040FF80000200700CE
:040FFC0000E007000A
:0200000270008C
:1020000000000120B5220700DD220700DF220700C3
:10201000E1220700E3220700E5220700000000009C
:10202000000000000000000000000000F147070071
:10203000E922070000000000EB220700ED22070064
:10204000EF220700EF220700EF220700EF22070030
:10205000EF220700EF220700EF220700EF22070020
:10206000EF220700EF220700EF220700EF22070010
:10207000EF220700EF220700EF220700EF22070000
:10208000015A0700EF220700EF220700EF220700A6
:10209000EF220700EF220700698F0700EF220700F9
:1020A000EF220700EF220700EF220700EF220700D0
:1020B000EF220700EF2207000000000000000000F0
:1020C000EF220700EF220700EF220700EF220700B0
:1020D0007D530700EF220700EF22070000000000F9
:1020E00000000000000000000000000000000000F0
:1020F00000000000000000000000000000000000E0
:1021000000000000000000000000000000000000CF
:1021100000000000000000000000000000000000BF
:1021200000000000000000000000000000000000AF
:10213000000000000000000000000000000000009F
:10214000000000000000000000000000000000008F
:10215000000000000000000000000000000000007F
:10216000000000000000000000000000000000006F
:10217000000000000000000000000000000000005F
:10218000000000000000000000000000000000004F
:10219000000000000000000000000000000000003F
:1021A000000000000000000000000000000000002F
:1021B000000000000000000000000000000000001F
:1021C000000000000000000000000000000000000F
:1021D00000000000000000000000000000000000FF
:1021E00000000000000000000000000000000000EF
:1021F00000000000000000000000000000000000DF
:1022000010B5054C237833B9044B13B10448AFF330
:1022100000800123237010BD7458002000000000CE
:1022200060D5070008B5034B1BB103490348AFF362
:10223000008008BD000000007858002060D507002D
:10224000154B002B08BF134B9D46A3F5803A002188
:102250008B460F461348144A121A08F041F80F4BE8
:10226000002B00D098470E4B002B00D09847002041
:10227000002104000D000D48002802D00C48AFF3E7
:10228000008007F0EDFF2000290002F063FC07F05A
:10229000D3FF00BF00000800000001200000000084
:1022A00000000000745800209CA0002000000000E6
:1022B000000000000649074A074B9B1A03DD043B58
:1022C000C858D050FBDC00F04DF8FFF7B9FF000014
:1022D00058D60700B857002074580020FEE7FEE7E4
:1022E000FEE7FEE7FEE7FEE7FEE7FEE7FEE7FEE7C6
:1022F0000C4B1B78062B10D10B4B1B681A070CD10B
:102300000A4B186800F0F003302B08D000F0E00012
:10231000A0F1400358425841704700207047012007
:10232000704700BFE00F00F0E40F00F0E80F00F08E
:10233000094B1B78062B0CD1084B1B681A0708D1D8
:10234000074B186800F0F000A0F1300358425841E4
:1023500070470020704700BFE00F00F0E40F00F06E
:10236000E80F00F008B5FFF7C3FF28B17D4B7E4AA8
:102370001B68C3F304231360FFF7DAFF10B17B4B34
:102380007B4A1A60FFF7B4FF28B17A4B7A4A1B6880
:10239000C3F342331360FFF7CBFF20B1774AD36812
:1023A00023F08073D360FFF7A3FF40B14FF0804369
:1023B0000022C3F80C21C3F81021C3F83825FFF719
:1023C000B7FF10B16E4B03221A60FFF7B1FF40B1A7
:1023D0006C4B05221A6001229A6700229A603F2204
:1023E0005A60694B1B78062B50D1684B1B68190744
:1023F0004CD1674B1B6803F0F003502B46D14FF0D4
:102400008052644BD2F80414C3F82015D2F8081493
:10241000C3F82415D2F80C14C3F82815D2F81014F8
:10242000C3F82C15D2F81414C3F83015D2F81814C8
:10243000C3F83415D2F81C14C3F84015D2F8201490
:10244000C3F84415D2F82414C3F84815D2F8281458
:10245000C3F84C15D2F82C14C3F85015D2F8301428
:10246000C3F85415D2F83414C3F86015D2F83814F0
:10247000C3F86415D2F83C14C3F86815D2F84014B8
:10248000C3F86C15D2F84424C3F87025FFF730FF69
:1024900028B1414B414A1B6803F04F031360FFF71B
:1024A00027FF48B14FF08043D3F80024D20744BF40
:1024B0006FF00102C3F80024394B1B68062B08D1CA
:1024C000384B1B68062B01BF374A136843F48063FF
:1024D0001360364AD2F8883043F47003C2F888306B
:1024E000BFF34F8FBFF36F8F4FF01023D3F800224D
:1024F000002A03DBD3F80432002B2FDA2C4B012205
:10250000C3F80425D3F80024002AFBD04FF0102292
:102510001521C2F80012D3F80024002AFBD04FF096
:1025200010231522C3F80422214B1A46D3F80014B5
:102530000029FBD00021C3F80415D2F80034002B89
:10254000FBD0BFF34F8F19491A4BCA6802F4E062FF
:102550001343CB60BFF34F8F00BFFDE7164B174A05
:102560001A6008BD240300104035014074C00740C4
:102570000DF0ADBA440200103C050040F0ED00E063
:10258000A005004010560040E00F00F0E40F00F0FE
:10259000E80F00F000C0004058020010E40E0040B8
:1025A00030010010340100103C17004000ED00E045
:1025B00000E001400400FA05B85700200090D00365
:1025C0007047000007B5044B0093044A402300F015
:1025D00032F803B05DF804FBE125070091580020B4
:1025E0002DE9F84388461446B2B10F4B0F4E032530
:1025F000002743F00109224608EB0701002002F002
:1026000071FB0744241A48B933782BB14FF47A4050
:10261000C847013D02D13570BDE8F883012333700E
:10262000002CE8D1F8E700BF30A307009058002045
:10263000704702F08BBBF0B595B01D4616460846B4
:102640000C4601F074FD1A9B0D93CDE90865002539
:102650002B46082205A920460A958DF82C500C958A
:1026600001F08CFD079B0293069B03939DF81430A9
:102670008DF8115003F00302012A1DD1BDF814207A
:10268000059DC3F3C203C2F383168DF81030B20068
:1026900008230EA9204601F071FDC5F3952508AB6E
:1026A0000093324602AB0EA9284600F01FFC2046DC
:1026B00001F041FD15B0F0BD022AF8D1BDF8165069
:1026C000C3F3C203C5F389158DF810300827082D10
:1026D0002E4628BF08263B4632460EA9204601F06A
:1026E0004DFDAD1B08AB02AA31460EA8374400F0E1
:1026F00061FC002DEBD1DAE708B5FFF79AFF074838
:10270000042100F051FB002803DA0549412000F0C4
:10271000E3FD044B01225A7108BD00BF10D607002B
:1027200044A30700BC570020037813F0040216D01E
:1027300003F00303012B03D0022B09D001207047C3
:102740000A6800880232C0F3831002440A60F5E789
:102750000B684288023303EB92130B60EEE71046DE
:10276000704700002DE9F04F89B000230446861C15
:102770000DF10F000F4615468DF80F3000F040FDAB
:10278000494801683960D0E90132484F13440133A8
:102790005B1A8246A7F10409A7F10808B3421CD3CB
:1027A0000020002D7BD004F00F039B0143F00503B4
:1027B00063F30F00DAF80020DAF80830134003332F
:1027C00016444AF823009DF80F00CAF8006000F094
:1027D00047FD012009B0BDE8F08F0121384600F027
:1027E0006DFE484600F085FE404600F082FEDAF8B5
:1027F0000400DAF808B0049000EA0B0003300AEB9A
:10280000800004A9FFF790FF049B0246F8B90BEA89
:1028100003010AEB810103F1020CC8680590013342
:1028200003EA0B0B0AEB8B0B00F003000128DBF82B
:102830000C10CDF810C02AD002280BD01C490192F0
:102840004FF4BF7000F048FD019A93460CE00BEA8C
:102850000300D3E7BDF81630C3F3891303334FEAFF
:10286000114B0CEB93030493404600F045FE10B16E
:10287000049BCAF804305946384600F01FFEDAE9D6
:1028800001231344DAF8002001339B1A86E7BDF8D0
:102890001430C3F383134FEA114B6344E3E7A405F9
:1028A00044F0060086E700BFA4590020C06900205C
:1028B0009BA307000D4B0E4840F2FF3241F2180176
:1028C00010B59A6000225A5041F21401C3E9002267
:1028D0005A5003F5815301221A7001F0E1FB0446BE
:1028E00010B9044801F05EFC204610BDA459002038
:1028F000E8D50700F0A3070030B50A4C71B10A4AC9
:102900000A49121BD20800239A4201D1002030BD8F
:1029100031F82350854202D00133F5E7034654F8DD
:102920003300F4E778D50700E8D5070060580020A9
:10293000094B013903EBC000032909D8DFE801F096
:102940000A020406042070470079704740797047F6
:10295000002070470220704778D50700034BD3E969
:102960000030C31A58425841704700BFA459002094
:102970002DE9F04387B0FFF7F1FF0646002840F04D
:102980000381824D41F21803E850BFF34F8F6B680B
:10299000AC680293234003337D4F05EB830002A90B
:1029A000FFF7C2FE029B10B13A68002A61D004EA28
:1029B0000302991C013305EB8202234005EB8303DC
:1029C000D268DB68049302F00303022B03920291A6
:1029D00067D1BDF80E306F48C3F38917502FB84642
:1029E00028BF4FF0500868F38F1308F10801ADF8C5
:1029F0000E3001F06DFB0646002800F0AF8001F0BC
:102A000096FB0023082203A9304601F0A3FB02999C
:102A100024EA01020132B8EB820F4FEA820339D96E
:102A20005FFA88F893B32140DCB2A8EB04080331C5
:102A30005FFA88F9A046584C05EB8101082342460D
:102A4000304601F087FB34B108F108034A462146BD
:102A5000304601F07FFB029B033703EB9707029799
:102A600041F21803EB58002B4FD141F21003EC5800
:102A70005EE02A689A4204D86A60304607B0BDE832
:102A8000F0832340033305EB830088E742491C466B
:102A90009946D3E70C40E11C0823424605EB81012F
:102AA000D6E7012B5AD1BDF80C303A48C3F3831155
:102AB000062928BF062161F3891302318900ADF888
:102AC0000C3001F005FB0646002847D001F02FFB33
:102AD0000023082203A9304601F03CFB0027BDF883
:102AE0000C20C2F38312BB00974203F10803B7D254
:102AF00002994A1C21400331029205EB8101042214
:102B0000304601F027FB0137E9E7304601F013FBBF
:102B1000FFF724FF80F00100C6B2AEE7E3685B79FF
:102B200023B1236831461B6820469847E3681C6838
:102B3000002CF3D1304601F0FEFA0DF107008DF8BC
:102B4000074000F05DFB41F21803EB580BB9029B04
:102B50006B609DF8070000F083FBD9E741F210039A
:102B6000EC5854B90D4B0E480E49C01AC008000469
:102B700040F0020000F076F8CAE7236820469B6820
:102B80009847E3681C68ECE7002676E7A459002024
:102B9000BC690020E8D50700B059002078D50700AF
:102BA00078D50700DAA307002DE9F74F274E044632
:102BB0000F46914601A901221846D6F808A098466A
:102BC000FFF7D0FD78B3019D0023A81C434503EB1C
:102BD000000132D11E48002100F035FC80F3100BBB
:102BE0001C4B1D4A4FEA14499B1AB9EBD30F04D36F
:102BF0001A4940F2A31000F06FFB6B1C03EA0A03B2
:102C0000E40006EB830304F0380449EA0B4005EACC
:102C10000A0544F00104D860033544EA881343EA06
:102C2000872346F825300E4B1B781BB1FFF7A0FE1B
:102C30000028FBD103B0BDE8F08F0AEA010106EBE2
:102C4000810159F82320CA600133BFE7A45900204D
:102C5000C0690020E8D5070078D507009BA30700CE
:102C6000C469002000231A46FFF79EBF07B5012361
:102C7000019201AAFFF798FF03B05DF804FB07B5C6
:102C8000CDE9002302236A46FFF78EFF03B05DF80B
:102C900004FB1FB5CDE90123069B039301AA03237F
:102CA000FFF782FF05B05DF804FB1FB5CDE90023F7
:102CB000069B0293079B03936A460423FFF774FF66
:102CC00005B05DF804FB7FB5CDE90123089B0393B4
:102CD000099B04930A9B059301AA0523FFF764FF50
:102CE00007B05DF804FB00002DE9F3472B4D0446C7
:102CF000D01C8946164601A900228008AF68FFF75C
:102D000031FDA8B3DDF80480AB6808F10200019042
:102D1000013338401B1AB6EB830F00F103004FEA72
:102D2000830A05EB80002DD83246494607F0CAFADF
:102D30001B48002100F087FB80F3100008F101031D
:102D40003B40220C05EB830307EA080742EA0040F8
:102D50000337D860E40055F8273004F0380444F015
:102D6000020444EA865203F47C131A4345F82720F0
:102D70000C4B1B781BB1FFF7FBFD0028FBD102B009
:102D8000BDE8F0875246494607F09CFAA6EB0A02D6
:102D900009EB0A0105F10C00C8E700BFA4590020A7
:102DA000C0690020C469002030B5134A41F2100107
:102DB000034654580020214649B9DC68207141F28D
:102DC000100415594DB91351DB68196030BDC9683D
:102DD0000D79854209D00968EEE7ED68D9682D685C
:102DE0000D601259D2681360F0E701300A28E2D171
:102DF0004FF0FF30EAE700BFA459002038B541F298
:102E00001002094B9C5803F58152012313701D4693
:102E100004B938BDE3685D71236820465B68984754
:102E2000E3681C68F4E700BFA459002007B5034617
:102E30000846197A052911D05B7A2BB1094A0A494B
:102E4000019000F005FC01980849019000F000FC99
:102E5000019803B05DF804EB00F0E8BB002AF8D05D
:102E6000F2E700BFFCA3070011CE07001EA4070075
:102E700030B5C38885B004460D4633B1144A00927C
:102E80001449154A284600F0E3FB217A05291DD094
:102E9000637A4BB1A088FFF74BFD104B104953F8F4
:102EA0002020284600F0D4FB227A0E4BA08853F84D
:102EB000222003920021FFF71FFD039A0A490346CF
:102EC000284605B0BDE8304000F0C2BB05B030BDBB
:102ED000FCA3070009A4070001A407008CA40700B5
:102EE00011CE0700B0A4070021A407002DE9F0438C
:102EF00085B01F460C9D002395F80C902B73064659
:102F00000C46904629463846FFF7B2FFB8F1060F47
:102F100009D8DFE808F00412181F283340003146B2
:102F2000284600F095FB002229463846FFF77EFF31
:102F300085F80C9005B0BDE8F0832268314628463C
:102F400000F086FBEFE7D4E900233146284600F085
:102F50007FFBE8E7A36800933146D4E900232846C5
:102F600000F076FBDFE7E3680193A3680093314646
:102F7000D4E90023284600F06BFBD4E723690293D1
:102F8000E3680193A36800933146D4E900232846FF
:102F900000F05EFBC7E76369039323690293E3686C
:102FA0000193A36800933146D4E90023284600F03A
:102FB0004FFBB8E708292DE9F84F80460E46174623
:102FC0001C463BD8002593F80C901D7319461046FB
:102FD000FFF74EFFDFF88CA0DFF88CB0AE422FD9A0
:102FE00018F805205946204600F032FB0135082D1F
:102FF000F4D11949194DDFF874A0204600F028FBE0
:103000004FF0000B5E4522D918F80B207E2A1CD801
:10301000134BD15C11F0970F08BF2E22514620466A
:1030200000F016FB0BF1010BBBF1080FEAD10122F6
:1030300021463846FFF7FAFE84F80C90BDE8F88F79
:103040005146204600F004FBD0E72E22E6E7294651
:10305000204600F0FDFAE5E735A4070033A4070099
:1030600059D4070031A407002BA4070037A4070098
:103070004B1C30B5DB00044612F003009BB20DD1AF
:10308000074D2A601A44074B1A60074B1870074B0C
:103090001870074B1C80074B198030BD0720FCE7D8
:1030A000686A0020646A0020606A0020706A00205C
:1030B0006C6A00206E6A00202DE9F3472B4F3B8895
:1030C0008B4206460D4690464BD300240DF1070077
:1030D0008DF8074000F094F8254B26481A78264BC7
:1030E000008893F800C084455FFA8CF138BF4C1C0F
:1030F000D2B238BFE4B2A2422DD01C781A78D1B235
:10310000904286BF0131C9B2002119709DF80700B5
:1031100000F0A6F84FF6FF739C4224D0DFF86090D1
:10312000D9F800204FEAC40A42F8348002EBC40305
:10313000A6B19DB1114B38881B682A4604FB0030AC
:10314000314607F0BFF8D9F80030534400209D8085
:1031500002B0BDE8F0874FF6FF74D7E700209880F3
:10316000F6E70920F4E70420F2E700BF6C6A0020CC
:10317000706A00206E6A0020606A0020646A002085
:10318000686A0020F8B5114C114D264622782B783C
:103190009A4200D1F8BD0F480F4A23781268078879
:1031A0000E4802EBC301006852F83320898803FB04
:1031B000070090470A4922780988D3B2914286BF16
:1031C0000133DBB200233370E0E700BF706A0020F8
:1031D000606A00206C6A0020686A0020646A00202F
:1031E0006E6A0020EFF30583C3F308032BB9EFF3F6
:1031F0001480C04300F001007047012070470000B8
:1032000070B50446FFF7EEFF012803D010494320B4
:1032100000F062F8EFF3108672B60E4A9068012350
:1032200098B993600C4B0D4DD3F880102940116074
:10323000C3F88050D3F8841051604FF0FF32C3F8C8
:103240008420207006B962B670BD2370FAE700BF13
:10325000C4A40700989C002000E100E0FC06FFBD2C
:1032600010B50446FFF7BEFF012803D009495120DD
:1032700000F032F8084B9A685AB154B9EFF3108154
:1032800072B6064A18681060586850609C6001B9B0
:1032900062B610BDC4A40700989C002000E100E0C5
:1032A00030B53AB11368DB430A4D0144814204D181
:1032B000D84330BD4FF0FF33F6E710F8012B5340F1
:1032C000082213F0010418BF2C46013A84EA530384
:1032D000F7D1EBE72083B8ED07B5ADF80000019119
:1032E0006A46002144F2020001F00AFC03B05DF8D6
:1032F00004FB10B561B1B2FBF3F403FB1424A4B2D8
:1033000044B9C0E9001484608281C381204610BDA5
:103310000E20FCE70920FAE782B050E8022FC188AE
:10332000B2EB324F4FF0000317BF92B241EA0141B6
:1033300042EA014104E04268B2EB324F08BF012388
:1033400040E80212002AE8D18DF807309DF80730D6
:10335000002B0CBF1120002002B0704737B550E899
:10336000013F9DB2C48925448489A54228BF2D1BF5
:103370000489A54202BFBFF32F8F002207E0C5EAF0
:10338000030540E80154002CE9D14FF001028DF80B
:1033900003200193019B9DF803200B6002F0FF03C3
:1033A00022B10B880068184403B030BD1846FBE713
:1033B0000A884B889A4209D150E8012FC2EA02429A
:1033C00040E80123002BF7D101207047002070470F
:1033D00037B550E8023F1FFAA3F5C488A54202BFE3
:1033E000BFF32F8F00220DE0C48925448489A542B4
:1033F00028BF2D1BC3EA054540E80254002CE8D144
:103400004FF001028DF803200193019B9DF80320EA
:103410000B6002F0FF0322B14B880068184403B030
:1034200030BD1846FBE70A884B889A4209D150E81C
:10343000022FC2EA224240E80223002BF7D10120EA
:1034400070470020704710B5034653E8000F0A4646
:1034500043E8002494F0000FF7D110BD10B50346E7
:1034600053E8000F40EA010243E8002494F0000F03
:10347000F6D110BD10B5034653E8002F42EA010013
:1034800043E8000494F0000FF6D110BD10B50346D8
:1034900053E8000F00EA010243E8002494F0000F13
:1034A000F6D110BD10B5034653E8002F02EA010023
:1034B00043E8000494F0000FF6D110BD10B50346A8
:1034C00053E8002F02EB010043E8000494F0000FE2
:1034D000F6D110BD10B5034653E8002FA2EB010052
:1034E00043E8000494F0000FF6D110BD0121FFF76E
:1034F000B5BF0121FFF7BEBF0021FFF7C7BF002105
:10350000FFF7D0BF10B50446002834D003681BB9BC
:103510001A49FF20FFF7E0FE636823B917494FF40B
:103520008070FFF7D9FEA36823B9144940F2011057
:10353000FFF7D2FEE36823B910494FF48170FFF71B
:10354000CBFE238A23B90D4940F20310FFF7C4FED6
:10355000D4E9012321689B1ADBB20A60013BDBB28C
:10356000FF2B226802D10020107110BD1168481C89
:1035700010600B70F2E70E20F7E700BF0AA5070006
:1035800037B5044620B914494FF49270FFF7A4FEF2
:1035900000250DF107008DF80750FFF731FE226876
:1035A000616813688B4210D9591E116013F8015CD1
:1035B000228AE36802FB05352268A36811685B1A5A
:1035C0001179DBB2994238BF13719DF80700FFF7FC
:1035D00047FE284603B030BD0AA5070037B50C46A4
:1035E000054620B9104940F24710FFF775FE24B98F
:1035F0000D494FF4A470FFF76FFE00230DF1070093
:103600008DF80730FFF7FCFD2A681368591C11601C
:10361000E968641A298AB4FBF1F41C709DF807006C
:10362000FFF71EFE03B030BD0AA5070010B5044623
:1036300018B906493120FFF74FFEA2682AB1636925
:103640002168206998470023A36010BD42A50700A8
:103650000EB433B5059D044618B911494220FFF751
:103660003BFE63691BB90E494320FFF735FE236813
:103670001BB90B494420FFF72FFE63681BB90849AB
:103680004520FFF729FE35B106AB01AA29462046A1
:10369000019300F079F802B0BDE8304003B0704704
:1036A00042A507000A2938B504460D4602D10D216E
:1036B000FFF7F8FFA3682268591CA160D554D4E92C
:1036C00001329A4204D32046BDE83840FFF7AEBF2E
:1036D00038BD00002DE9F84F9846DDE90A4315464C
:1036E00082460F460A464FF00109AA420FD2C14551
:1036F00038BFC14613F0010B01D16CB9002401267B
:10370000B8F1010F1BD908F1FF386E43F8E709F152
:103710000109B2FBF5F2E8E79B070ED5B8F1000FFF
:103720000CBF30262026A145E9D2013C3146504647
:10373000FFF7B8FF002CF6D1E0E72026F3E7B7FB50
:10374000F6F39D42E1D9DFF83C80B7FBF6F3504633
:1037500018F8031006FB1377FFF7A4FF3346AB42BC
:10376000B6FBF5F6F1D2BBF1000F02D00CB1A145CA
:1037700001D3BDE8F88F20215046013CFFF792FFAE
:10378000F4E700BFA5A507002DE9F74F88461746C7
:10379000054620B9B1494FF4A270FFF79DFD6B6952
:1037A00023B9AE494FF4A370FFF796FD2B6823B9F8
:1037B000AA4940F24710FFF78FFD6B6823B9A7496C
:1037C0004FF4A470FFF788FDB8F1000F00F04281BC
:1037D00018F8011B49B92B7B002B00F03B812846D0
:1037E00003B0BDE8F04FFFF721BF252940F0B780B7
:1037F000002698F800302D2B424608F1010823D00E
:10380000302B24D02B2B25D000242A2B02F10101B0
:1038100023D13B681A1D3A601B680A461C44137882
:103820002E2B26D101324FF0000A104610F8011B52
:10383000A1F1300CBCF1090F1DD80A2303FB0A13B8
:10384000A3F1300A0246F0E746F00106D1E746F060
:103850000206CEE746F00406CBE711F8013CA3F1DF
:1038600030000928DBD80A2202FB0434303C0A4627
:10387000CBE74FF0000A12F8011B01F0FB006828AB
:103880009046F8D0782909D86F290CD8632962D0DE
:1038900022D8252963D0582900F0888098F8003074
:1038A000002B95D197E770390829F7D801A353F871
:1038B00021F000BF2F3A07009D3807009D38070010
:1038C000BD3907009D3807009B3907009D38070068
:1038D0009D380700AD390700642901D06929DDD181
:1038E0003A68111D3960D2F8009089EAE972A2EBBA
:1038F000E9724FF0010B092A35DCD34538BFD346B6
:103900002CB1B9F1000F01DB720700D5013CB30700
:1039100002D5BAF1000F03D0F00701D44CBB00244C
:10392000B9F1000F2DDAC9F100092D212846FFF762
:10393000B9FE06F00302022A04D1BAF1000F01D148
:103940001CBB0024CDE9004653460A2249462846BE
:10395000FFF7C0FEA2E73B681A1D3A6019782846B7
:10396000FFF7A0FE9AE70A230BF1010BB2FBF3F27B
:10397000C1E7A345D4D220212846013CFFF792FE9F
:10398000CCE77107D5D52B21D0E7A345DAD230217A
:103990002846013CFFF786FED2E73968CDE90046AC
:1039A0000A1D3A6053460A220968D0E739680A1DA1
:1039B0003A60CDE9004653461022F5E73B681A1DF0
:1039C0003A6016F00106D3F8009028D1B9F1000F43
:1039D00003D0484606F094FC0646B44200D904BB26
:1039E00009F1FF3919F8011F00293FF457AF2846A4
:1039F000FFF758FEF6E728460136FFF753FE19F8A1
:103A000006100029F7D1A642BFF448AF002C3FF4BE
:103A100045AF20212846013CFFF744FEF3E700268E
:103A2000EDE720212846013CFFF73CFED5E73B6847
:103A30001A1D3A60302128461C68FFF733FE7821B2
:103A40002846FFF72FFE00220823CDE90032214649
:103A500010227CE703B0BDE8F08F00BF70A507001F
:103A600070B50D461646044618B908495520FFF7AB
:103A700033FC1DB905495620FFF72EFC25602B6845
:103A800031462046BDE87040184700BFB5A5070085
:103A90002DE9F041DDF818800E4617461D46044614
:103AA00018B922498820FFF717FC1FB91F49892040
:103AB000FFF712FC23681BB91C498A20FFF70CFC96
:103AC00045BB1A498B20FFF707FCB20703D0174903
:103AD0009120FFF701FCBB0703D014499220FFF7A8
:103AE000FBFBE3689E4204D322696B1E334493427E
:103AF00003D90E499320FFF7EFFB2368CDF8188018
:103B0000D3F80CE03A462B4631462046F446BDE851
:103B1000F041604763685A68B5FBF2F302FB135348
:103B2000002BD2D001498E20CDE700BFB5A50700FC
:103B30002DE9F0410D4616461F46044618B91949AD
:103B40009E20FFF7C9FB23681BB916499F20FFF78A
:103B5000C3FB1EB91349A020FFF7BEFB63681B68B7
:103B6000013B2B4203D00F49A320FFF7B5FBE368CD
:103B70009D4207D363681B686A1E03FB0623226904
:103B8000934203D90749A520FFF7A6FB2368D3F882
:103B900010E032463B4629462046F446BDE8F04157
:103BA000604700BFB5A5070070B550B90E4D0F4C6A
:103BB0000026641B1423B4FBF3F4B44208D10020A4
:103BC00010E00368002BF1D0BDE87040DB691847B6
:103BD0002B6813B901361435EFE7DB69284698479F
:103BE0000028F7D070BD00BF605800207458002036
:103BF000014B43600020704700A60700084670474D
:103C000000207047024B1868003818BF0120704729
:103C1000746A002008B50248FFF771FC002008BD57
:103C2000746A002008B510461A4606F04BFB0020C7
:103C300008BD00002DE9F043814687B014480E46C8
:103C400015469846FFF752FC0446F0B90746BD42B8
:103C500015D10F48FFF753FCD9F808305BB10222A9
:103C60008DF800200022CDE90126CDE90325CDF80D
:103C7000148068469847204607B0BDE8F08306EBFD
:103C8000073000F071FC0137E1E71124F3E700BFD2
:103C9000746A00202DE9F041804686B011480F4635
:103CA00016461D46FFF722FC0446C8B9AA0831464D
:103CB000384600F071FC0B48FFF721FCD8F80830BB
:103CC00053B101228DF800200C9A0592CDE90147ED
:103CD000CDE9036568469847204606B0BDE8F08107
:103CE0001124F9E7746A002029DF704728DF704744
:103CF00070B50668B36886B004460D4673B11422E9
:103D00000021684606F0ECFAA36805932379019533
:103D100033B1012B0ED0B3686846984706B070BD2A
:103D200001238DF8003023690293E36803936369EC
:103D30000493F0E702238DF80030E3681B0302933D
:103D4000F5E708467047002070470000024B187ADC
:103D5000003818BF01207047646C0020034B187AAC
:103D60000122B0FA80F05A7440097047646C002058
:103D700008B510461A4606F0A5FA002008BD000056
:103D800008B514220021044806F0AAFA0348FFF7F8
:103D9000C3FA002008BD00BF646C0020546C0020F2
:103DA00010B5094C094B43602046FFF79FFB48B90B
:103DB00005F0C0F8064920741C2306484FF4EE7243
:103DC000FFF797FA002010BD646C00202CA60700B6
:103DD000786A0020546C002070B5234C234E237A5F
:103DE00025463BB922492348FFF7F2FA306008B96B
:103DF000606070BD022334682B72237973B1012B8C
:103E000022D020460321FFF773FF00232B726B6043
:103E1000BDE8704016491748FFF705BBD4E90523F4
:103E2000D21A142AD4E9031028BF14229208012AB6
:103E300038BF012219441844FFF756FF50B111282A
:103E4000DFD101232B72D4E7D4E903031844FFF731
:103E50004DFFF3E72B7C002BCBD10146BDE8704032
:103E6000022000F009B800BF646C00207C6C0020C8
:103E7000786C0020546C002038B5831E012B43D889
:103E8000224C237A002B3FD0022B09D103282ED0BD
:103E90001F4B00221B68E2601A793AB1012A20D038
:103EA000637C6BBBBDE83840FFF796BFD3E90512D2
:103EB0008D1A142D94BF521914329A619142EFD188
:103EC00002284FF0000308BF19462372104B18BF99
:103ED0000D211868FFF70CFF0E490F48FFF7A3FAF2
:103EE000DEE71A6901321A615B699A42E7E7E36823
:103EF0000133082B01D8E360D2E70023E360DFE75A
:103F0000BDE8384005F006B838BD00BF646C00203D
:103F10007C6C0020786C0020546C002000F0FD03C5
:103F2000012B08D1044B00225A74421E50425041CA
:103F30001874FFF751BF7047646C002010B5064C31
:103F4000201DFFF7D3FA28B9637C1BB9BDE81040E8
:103F5000FFF742BF10BD00BF646C00202DE9F341A4
:103F600080460D460F4801A916461F46FFF7F6F991
:103F70000446A8B11C22002106F0B2F92D0B012342
:103F8000237101A90748C4F80080A760E560666155
:103F9000FFF70EFAFFF7D2FF002002B0BDE8F08174
:103FA0000420FAE7546C00202DE9F7438146884647
:103FB000104801A917461E46FFF7D0F90446B0B1D4
:103FC0001C22002106F08CF900250A9BA36001A9A0
:103FD000C4E9037807482571C4F800906661FFF7CB
:103FE000E7F9FFF7ABFF284603B0BDE8F0830420F4
:103FF000FAE700BF546C00202DE9F74F99469DF871
:104000003030009388469346064618B92349B620B7
:10401000FFF762F9F18872794A43043A4A4505D8B4
:104020001E490192C420FFF757F9019ADBF800708E
:10403000B6F806A007EB0901914209F1040488BF14
:10404000A2EB0907B4FBFAF5CBF800700AFB1544A4
:1040500045B9AAEB040BBB4528BFBB462FB903B03B
:10406000BDE8F08F3668013DF2E7009B043408EBB1
:10407000050034445A466BB12146A7EB0B0706F006
:1040800021F9BA455D443668D3464FF0000428BF95
:10409000BB46E3E701462046EFE700BF58A607000E
:1040A000FFF730BAF8B546790146721E054600237F
:1040B00093422D6803D30024A64202D8F8BD0133F1
:1040C000F6E70F682846FFF789FA01343946F3E727
:1040D0002DE9F843CD1C068A0746FFF751FA043E46
:1040E00035440446B5FBF6F5F0B14FF48073EDB2FC
:1040F0008380C680013D076081464FF00008A845D7
:1041000012D23846FFF73CFA064648B163790133CC
:10411000637108F10108C9F8000007608146EEE705
:104120002046FFF7BFFF34462046BDE8F883012153
:104130000430FFF7C3B910B5012104460430FFF77E
:10414000C9F910F0FF0F04D12046BDE81040FFF779
:10415000A9BF10BD1FB5144603920022009203AA06
:10416000FFF74AFF039BA34203D00349F620FFF762
:10417000B3F804B010BD00BF58A607001FB5144621
:1041800003920122009203AAFFF736FF039BA3428A
:1041900004D003494FF48070FFF79EF804B010BDBF
:1041A00058A60700826800239360826813618268C2
:1041B00053618268D360826853608268136070477D
:1041C00038B50D46044618B908495020FFF784F861
:1041D0001DB906495120FFF77FF825602B68636001
:1041E0006A68934204BF0023636038BD90A607004D
:1041F00010B5044618B90B496320FFF76DF8236822
:104200001BB908496420FFF767F8636843B1226867
:1042100091680B4463605268934204BF002363605B
:1042200010BD00BF90A6070010B50D49A1F594720E
:10423000914201D800200FE08C1AE30F03EBE40356
:104240005B1002EBC30452F83330834205D802D22C
:1042500004F10802ECE7606810BD2146E8E700BF02
:10426000D8AB070008B5FFF7DFFF024B002808BFF7
:10427000184608BD9BAA07002DE9F04FC9B008AA4F
:1042800001F1400514464B780E781B0443EA06639F
:10429000CE7833438E78043143EA06238D4244F8C6
:1042A000043BF0D11024916B16464FEAF14383EAA8
:1042B000714383EA9123716A366852F8045F31448E
:1042C0000B444FEAB54181EAF51181EAD501013489
:1042D0000B44402CD363E6D1D0E914E30093836D03
:1042E0000193C36D0293036E0393436E0493836E35
:1042F0000593C36E0693DDE9057BDDE9031CDDE96B
:1043000001592B4B009E079374464FF00008079B02
:1043100053F8042B07934FEAF12383EAB11383EA9E
:10432000716A08AB53F828301A440AEB020327EAF3
:10433000010A01EA0C028AEA02021A444FEA743ABC
:1043400086EA05035A448AEAB40A06EA050B2340C2
:1043500083EA0B038AEAB45A08F101089A44B8F1D7
:10436000400F02EB0903BB465244A94619D17244DF
:104370000265009A22444265019A32448265029A9B
:104380002A44C265039A1A44049B02660B4443669E
:10439000059B63448366069B3B44C36649B0BDE806
:1043A000F08F674635468C46264619461446AEE7DA
:1043B000D8AB070030B5E0B10F4A10490024002502
:1043C000C0E91245C0E914120D4C0E4A0E4DC0E969
:1043D00016420E4AC0E918520D4A826602F1745222
:1043E000A2F523020023A2F692420364C266184695
:1043F00030BD0E20FCE700BF85AE67BB67E6096AEB
:1044000072F36E3C3AF54FA57F520E518C68059BB6
:10441000ABD9831F70B5F0B1DAB900201CE00C46AF
:104420008D180026AC42F8D0036C14F8012BC2544E
:104430000133402B0364F5D10146FFF71DFFD0E99E
:10444000123213F5007342F10002C0E91232066421
:10445000E8E70029E3D10E2070BD70B50D46164681
:104460000446002875D0002973D0026C8021372AB9
:10447000815402F101034FF0000240D8382B39D1AA
:10448000D4E91201226C0823E3FB020103BAE363BF
:104490000B0A84F83A300B0C84F839300B0EC4E95F
:1044A000120184F83B1084F8383021462046FFF78B
:1044B000E3FE691E76B30023E26EDA4001F8012FB5
:1044C000A26EDA400A71626EDA400A72226EDA4037
:1044D0000A73E26DDA400A74A26DDA400A75626D01
:1044E000DA400A76226DDA400833202B0A77E3D1CE
:1044F000002070BDE2540133C0E7E25401333F2B8A
:10450000FBD921462046FFF7B7FE3822002105F0EF
:10451000E7FEB5E71823226DDA4001F8012F626D3E
:10452000DA400A71A26DDA400A72E26DDA400A736B
:10453000226EDA400A74626EDA400A75A26EDA40C0
:104540000A76E26EDA40083B13F1080F0A77E2D1EF
:10455000CEE70E20CDE70000024AD2F80034002B4F
:10456000FBD0704700E001400A4908B50223C1F8BA
:104570000435BFF36F8FBFF34F8FC1F80805FFF706
:10458000EBFF0023C1F80435BFF36F8FBFF34F8FEC
:1045900008BD00BF00E001400E4B10B50124C3F878
:1045A0000445BFF36F8FBFF34F8F01EB8204401AB6
:1045B000A14208D1074B0022C3F80425BFF36F8F37
:1045C000BFF34F8F10BD431851F8042B1A60FFF74B
:1045D000C3FFEDE700E0014043689B68184708B55A
:1045E000436808305A7900F029FA002008BD2DE907
:1045F000F0410C469CB008461F460392FFF7ECFFC3
:10460000D4F80480039998F80550BD4228BF3D4670
:1046100006462A4604A800F0F5F998F805202299E4
:104620000CA800F00BFA00960CAB2A4604A904F182
:10463000080005F083FC002848F2425018BF002013
:104640001CB0BDE8F081000002494FF4F370FEF7A2
:1046500043BE00BFE4AC0700032810B5044603D9ED
:1046600008494120FEF738FE074B1C5D1F2C01D97D
:10467000FFF7EAFF01234FF0A042A340C2F80C3538
:1046800010BD00BF0FAD070039AD0700032810B5FE
:10469000044603D908494720FEF71EFE074B1C5D60
:1046A0001F2C01D9FFF7D0FF01234FF0A042A340F8
:1046B000C2F8083510BD00BF0FAD070039AD0700C7
:1046C00008B50020FFF7E2FF0120FFF7DFFF02201F
:1046D000FFF7DCFFBDE808400320FFF7D7BFC207A4
:1046E00010B504460CD54FF0A0430322C3F844276D
:1046F000C3F84827C3F84C27C3F85027FFF7E0FF5B
:10470000A3070AD54FF0A0430C22C3F83427C3F8FF
:104710003827C3F83C27C3F8402710BD38B1054BF4
:104720000360054B436001230372002070470E2095
:10473000704700BF634707003D47070069B10B782A
:10474000022B0CD1022804D0032814BF082011200A
:10475000704703230B70002070470E20704708201D
:10476000704710B50C4681B10B78012B06D00ED9DD
:10477000033B012B94BF0820112010BD03F032FA37
:104780000028FAD102232370F7E70E20F5E708206E
:10479000F3E7000070B5144B144A0C21D21AB2FB97
:1047A000F1F2816911F8025C044635B90069002113
:1047B000914205D1012323600EE04FF0FF30F6E770
:1047C0001E68AE420CD1461C07D19D68D4E9000199
:1047D000D4E90223A847206070BD5E688642F4D009
:1047E00001310C33E4E700BF6CD5070078D5070032
:1047F0001EF0040F0CBFEFF30880EFF30980FFF702
:10480000C9BF00BF28B139B10023C1E90030184643
:10481000704748F21050704748F21350704738B153
:10482000006848F24053884214BF18460020704781
:1048300048F21050704730B148F21153914214BF02
:1048400018460020704748F21050704770B5064671
:104850000C461D46FFF7D6FF50B9B3794AB1AB42BB
:104860000AD111462046FFF7BAFE08B9044B23606F
:1048700070BD48F21050FBE748F21150F8E700BF56
:104880007052464D2DE9F0470C4606460F4920462A
:10489000DDE9088915461F46FFF7C1FFA0B9636827
:1048A0005A79494652004046FFF7C5FF60B94DB1FD
:1048B000CDF820803B462A4621463046BDE8F047E9
:1048C000FFF795BE48F21050BDE8F0877052464D94
:1048D00010B5044638B149B141600B68984708B932
:1048E000044B236010BD48F20150FBE748F2105022
:1048F000F8E700BF6E524648F0B4134648B1076867
:10490000094EB7420AD161B12AB14368F0BC5B6875
:10491000184748F201531846F0BC704748F202535A
:10492000F9E748F21053F6E76E524648F0B460B12A
:1049300007680C4EB7420CD171B143681568DC684A
:10494000A5420CD3F0BC9B68184748F20150F0BC5C
:10495000704748F20250FAE748F21350F7E748F27E
:104960001450F4E76E524648F7B50446DDE908678F
:1049700015460193FFF7ACFF68B9019A2946204616
:10498000FFF7BAFF38B93A463146204603B0BDE8D2
:10499000F040FFF7CBBF03B0F0BD0000F8B50A4F01
:1049A0000A4C0B4DE41B0121E40829700026A642A5
:1049B00003D102232B700020F8BD57F836309847FA
:1049C0000028F9D10136F2E764D5070064D5070065
:1049D000806C002038B50D46044618B908493320CC
:1049E000FEF77AFC691E21442046814200D238BD80
:1049F00003780A7800F8012B01F80139F5E700BFC8
:104A00003DAD070070B50D461446064618B90A4973
:104A10004520FEF761FC1DB907494620FEF75CFC06
:104A2000621E3244013DB24200D270BD15F8013F12
:104A300002F80139F7E700BF3DAD070070B5164633
:104A400004460D46FFF7DEFF3246A919A019BDE85E
:104A50007040FFF7D7BF38B50D460446FFF7BAFFE1
:104A600029466019BDE83840FFF7B4BF08B50728EC
:104A70001BD8DFE800F004121A1A1A041A040120E5
:104A8000FFF72DFE0020FFF7E7FD0120FFF7E4FD13
:104A9000BDE808400220FFF7F9BD0120FFF7F6FD51
:104AA000BDE808400220FFF7D7BD08BD08B5FEF7F6
:104AB000A5F9FDF75DFF0028FBD10D4D642445F0FD
:104AC00001054FF47A40A847013CFAD1094B1B6815
:104AD000DB0700D500BEBFF34F8F0749074BCA68FD
:104AE00002F4E0621343CB60BFF34F8F00BFFDE7DA
:104AF00030AE0700F0ED00E000ED00E00400FA0544
:104B000007B50B46064C07490092641AE4082404D2
:104B10000246054944F00100FEF7BBF8FFF7C6FF67
:104B200078D5070078D50700BCAD070008B5024668
:104B3000054B064806491B1ADB081B0443F001001D
:104B4000FEF794F8FFF7B2FF78D5070078D5070095
:104B5000F3AD07000022104638B54FF4805100F045
:104B6000D7FA024608B1FFF7E1FF1548C0F5FC216E
:104B700000F0CEFA01460028F5D11248124CFDF79C
:104B800099FEFDF7B9FD114B1149E41AE40824041C
:104B900044F003042046FEF765F8FDF7E9FE00281F
:104BA000FBD10C4800F066F905460028DBD100F087
:104BB00071FA20460849FEF755F8284638BD00BF6F
:104BC00000200700B954070078D5070078D5070002
:104BD0000EAE07006D4A07001AAE07000369C168F0
:104BE0008B429DBF8268D21802F1FF3203F1FF337E
:104BF00094BF501A581A70472DE9F843D0E902942F
:104C00000546A9EB04084068904520440F4614442B
:104C100004D905F057FBEC60BDE8F8834246A4EBED
:104C2000090405F04FFB6868224607EB0801F0E72E
:104C30002DE9F843C5680646894617464FF0000837
:104C40003469B3687068A54228BFE418013C621B50
:104C50005C1BBC4228BF3C46944228BF14464946D0
:104C60002844224605F02EFBB3682544AB4208BF1A
:104C700000253F1BA044A144F560E1D14046BDE8BA
:104C8000F883000010B5114C114AA2610223C4E957
:104C90000433104BE361A2644FF480530E4A0F4972
:104CA0002362E26400231022E01DA3626362E362D8
:104CB000A3656365E365226505F01AFB0849204694
:104CC00005F016FB2023A37110BD00BFA49C00209B
:104CD00036AE0700916C0020816C00203FAE0700CB
:104CE00043AE0700F8B5184C182300FB033503FB4F
:104CF00000402544C46A012C0F4616460FD0022CF2
:104D00001AD0F4B92846FFF769FF864205D8324623
:104D100039462846FFF770FF34462046F8BD28463E
:104D2000FFF75CFF8642344628BF044622463946D8
:104D30002846FFF761FFF0E72846BDE8F840FFF797
:104D400077BF0024E9E700BFA49C0020FFF79ABFCB
:104D500041DF7047014B01221A707047B480002078
:104D600008B50948094B0A49C01AC008000440F0B8
:104D70000400FDF777FF074B074800221A70BDE8D3
:104D8000084002F04BBE00BF78D5070078D5070079
:104D90004AAE0700B4800020054E070008B507485A
:104DA000074B0849C01AC008000440F00300FDF793
:104DB00059FFBDE80840FFF7D3BF00BF78D5070013
:104DC00078D5070060AE0700042810B5044607D860
:104DD000022808D909494FF4701000F02DFB02E0B9
:104DE000831F012B06D9064B1B6833B12046BDE853
:104DF00010401847FFF7B4FFF5E710BD9D4D0700C1
:104E0000B880002008B5FDF7F9FFFDF7B1FD0028D7
:104E1000FBD10B4D642445F001054FF47A40A847BF
:104E2000013CFAD1BFF34F8F0649074BCA6802F421
:104E3000E0621343CB60BFF34F8F00BFFDE700BFBD
:104E400010B0070000ED00E00400FA0508B50648C0
:104E5000064B0749C01AC008000440F00400FDF7E3
:104E600001FF002008BD00BF78D5070078D50700F6
:104E700074AE0700F8B56F4B6F4C7049E41AE40844
:104E8000240444F0040605463046FDF7EBFE6C4B67
:104E900000201D6002F0D8FD002840F0C58000F021
:104EA00089FC012800F0B980022800F0BF800028AA
:104EB00040F0BA804FF08043D3F8005415F48035A9
:104EC00051D04FF48032C3F8002405465D4F3B6A51
:104ED000012B5BD05C4944F00300FDF7C3FE5B4946
:104EE0003046FDF7BFFE4FF4701400F09BFD584AAA
:104EF00020211820FEF7BCF808B1FFF717FE554B2C
:104F00001A6802F0F802B02A06D11A68D20742BF26
:104F10001A6802F04E021A604A4B9A6D012A06D1B5
:104F20000020986502F01CFD08B1FFF7FFFDFFF7B8
:104F30008DFF002878D12046474900F07DFA474888
:104F400001F0A6FA00286FD145493046FDF78AFEE8
:104F500000F0AEFDFEF716F9FDF70AFD0028F7D1C7
:104F6000FFF7F6FEF4E7D3F8202502F0F802A82AAE
:104F70000AD1D3F82025D10706D5D3F8202502F091
:104F80005602C3F82025A1E701259FE743F2040359
:104F90001A68344B9A420FD17A6B1DB997F8603278
:104FA000012B09D030484FF4805103F03FFC18B971
:104FB0002E4944F0020090E702F0F2FEBA69014681
:104FC0001DB997F8A132012B05D0294803F02EFC1A
:104FD00008B92849EDE728493046FDF743FE1D4B47
:104FE0001B6813F0B10F01D0244979E7BB6D012B89
:104FF00001D1234974E702F02DFEA8B9214D287094
:10500000214802F00BFD2B7823B920494FF4FE70A4
:10501000FEF762F900F03EF801E0FFF7A1FE1C493F
:1050200044F00100FDF71EFE0320F8BD4FF4A0245C
:105030005BE700BF78D5070078D507008EAE070084
:10504000B88000201C9D0020A5AE070043AF0700DC
:10505000947C00201C0500409D4D0700C94D0700B1
:10506000BFAF0700DBE5B1517C9F0020D3AE070046
:10507000BD9F00200EAF070036AF070066AF0700E8
:1050800087AF0700B4800020554D0700CFAF070061
:10509000B3AF070037B5184B184C194D1949E41A2E
:1050A000E408240444F004004FF480520190FDF71A
:1050B000DDFDD5F8802014490198FDF7D7FD4FF0AC
:1050C000FF33C5F88030C5F88031C5F88430C5F8A5
:1050D000843102F007F920B10C4944F00100FDF7DA
:1050E000C1FDFDF745FC0028FBD14FF4805003B013
:1050F000BDE8304000F03AB878D5070078D5070011
:1051000000E100E016B007004CB0070076B00700E1
:1051100070B5C1F30B0434BBB0F5FE2F23D84B1E82
:105120001B0B020B03EB103101264FF08040914224
:1051300001D2204670BD02F01F03550906FA03F3A1
:10514000032D05D8DFE805F00206090CC0F800368B
:105150000132ECE7C0F80436FAE7C0F81036F7E79A
:10516000C0F81436F4E70724E3E7000030B504463E
:105170002C4889B00022C0F5FE21FFF7C9FF50B1CD
:10518000294A2A4B2A499B1ADB081B04024643F092
:105190000100FDF76BFD02F003FE264B996900222A
:1051A00001441046FFF7B4FF50B11F4A1F4B22497C
:1051B0009B1ADB081B04024643F00100FDF756FD75
:1051C000EFF305810023D4E9002083F3148883F3EF
:1051D000108883F3118883F31388C1F3080139B968
:1051E00082F308884FF0FF339E46004709B030BD78
:1051F000A2F120044FF0FF35CDE90033CDE90233B1
:10520000CDE90550049320224FF080736946204673
:10521000079305F057F884F30888AE466FF006034D
:105220001847E3E70020070078D5070078D5070086
:10523000ABB007001C9D0020E2B0070073B5274B00
:10524000064627481B1ADB081B040C463246254934
:1052500043F00400FDF70AFDB4F1807F39D3224901
:105260008F20FEF739F86FF07F41A14228BF214619
:105270001E4B641AD3F80455631E942B96BF9634C4
:10528000746074600D44347B25F07F4598BF963D73
:10529000032C03D914497720FEF71EF8134E04F5AA
:1052A000A8734FF4F86046F82350114B43F0010304
:1052B0009847104BA200134400221A601B68019308
:1052C000019B4FF4803303FA04F4C6F8044302B0A0
:1052D00070BD952CC7D804499020C2E778D5070047
:1052E00078D5070016B107002CB107000040024036
:1052F000A0B107004041024018490A7884B0002A52
:1053000029D14FF08043A020D3F81834DB035EBFCF
:10531000134B01221A60134A002313601268039290
:10532000039A114A136012680292029A0F4A13609C
:1053300012680192019A0E4A82F8240310205060EC
:105340000C4A0D48C2F8083501230360022013609F
:10535000C2F804030B7004B0704700BFC080002087
:1053600008000040004102404041024044410240E8
:1053700000E100E000400240084002402DE9F74310
:10538000234B1A6842B123490A6801320A6000229D
:105390001A601B680093009B1F4D204B204C214E30
:1053A000DFF88C80DFF88C901F4FED1AED082D048C
:1053B00045F004053368CBB10023336033680193B3
:1053C000224641462846019BFDF750FC227B1749A7
:1053D0004FF480339340C9F8083322462846FDF73E
:1053E00045FC616851B12046FFF728FF0436BE42F4
:1053F00004F11004DED103B0BDE8F083A16811B15F
:105400002046FFF71BFF2368002BEFD09847EDE7FE
:1054100004410240BC80002078D5070078D5070001
:10542000C4570020404102404841024089B1070072
:1054300077B1070000400240F8B5114B114E044609
:10544000114837681B1ADB081B043A4643F0040076
:105450000D460E49FDF70AFC3A7B4FF4803393402A
:105460000B4AC2F808334CB13668FFF745FF356088
:1054700021463046BDE8F840FFF7E0BEF8BD00BF6A
:1054800078D50700E457002078D5070077B10700EA
:105490000040024070B5074B1D680E46A8600446E8
:1054A000FFF72AFF2E6021462846BDE87040FFF72F
:1054B000C5BE00BFE8570020034A044B1068D3F86C
:1054C000043503EB00607047BC80002000400240C0
:1054D000014B01221A707047C18000202DE9F34171
:1054E000274FFA6A7E6ABC6CAC2A31D17B6B1C44B4
:1054F000F61A244B244D254A25490096ED1AED084D
:105500002D0445F0040823464046FDF7C2FBFB6A24
:10551000AC2B23D01D483246214604F0C5FE28B3EB
:105520001C49334622464046FDF7A9FBFDF720FA09
:105530000028FBD100F0BCFA2046314601F0B4FE51
:105540000446C0B1144945F00100FDF78BFB12E0A1
:10555000002CCED102F03AFC0446CAE70B48324692
:10556000A4F5804104F0A0FE0028D3D10B494046A9
:10557000FDF778FB0024204602B0BDE8F08100BFB3
:105580001C9D002078D5070078D507000020070073
:10559000A6B10700DBB107003FB2070008B2070061
:1055A0002DE9F04F3C4B16463C4A9B1A87B0DB086E
:1055B0001B04814205460F46049343F0040B08D1B7
:1055C00037495846FDF74EFB0024204607B0BDE89A
:1055D000F08F03D233494F20FDF77EFEC5F30B0356
:1055E0001BB130495120FDF777FE7B1BB3F5805F7F
:1055F0004FEA133403D22B495420FDF76DFE00F01F
:1056000011FA082C28BF082406F6FF7923034FEA75
:105610001939039405930EB93446D6E7039B4B45DD
:105620003ABFDDF80CA0DDF81480CA464FF0000246
:105630005146284628BFB04601F0F0FD0446002838
:10564000C3D11949CDF800802B463A465846FDF79C
:1056500020FB08F10302234622F0030239462846C4
:1056600001F09EFD04460028AFD1104A136B43445D
:10567000136302F0D9F9A9EB0A09A6EB0806454421
:10568000474404460028C6D0049B094943F0010062
:10569000FDF7E8FA99E700BF78D5070078D507004D
:1056A00059B2070068B20700B6B207001C9D00207F
:1056B000D7B207002DE9F74302F098FB344C354B85
:1056C000DFF8EC903449D9F84850D9F83080D9F84F
:1056D0003460E41AE4082404074644F0040001900E
:1056E000FDF7C0FA42F204030198EA5803F1A3431C
:1056F00003F5471303F2D7539A4209D0274944F0E0
:105700000100FDF7AFFA0325284603B0BDE8F0839A
:10571000D9F83030B3421D4404D12149FDF7A2FA33
:105720000025F1E7D3B94FF440521278142A81BF13
:1057300043F214021B491268B2FBF1F205F5005165
:1057400098BF1A460978142981BF42F21403E95818
:10575000144BB1FBF3F31449FDF791FAA6EB0802E1
:1057600002F6FF7222F47F62294622F00F0207EB55
:105770000800FFF715FF054628B10C4944F0010069
:10578000FDF770FAC0E703B0BDE8F04302F04CB992
:1057900078D5070078D5070010B3070035B30700A8
:1057A00069B3070040420F007BB30700A4B30700B2
:1057B0001C9D00202DE9F047624B634D634E644908
:1057C000ED1AED082D0445F004073846FDF74AFAB6
:1057D000F36AAA2B00F09A800CD8012B22D0A52BBB
:1057E00000F0888045F003005A49FDF73BFA00209D
:1057F000BDE8F087AC2BF5D157493846FDF732FAB2
:1058000056493846FDF72EFAFFF754FF04460028A4
:1058100000F08680524945F00100FDF723FA4FF071
:10582000010823E04F493846FDF71CFAD6F82490CA
:10583000D6F848A002F0B4FA346B4B4900EB0408E8
:105840003846FDF70FFA316B5144884514BFA9EB78
:10585000040200224046FFF7A3FE044670B143490C
:1058600045F00100FDF7FEF94FF00008F36A4049EA
:10587000224645F00100FDF702FA13E002F090FA2B
:1058800022464946FDF70CFDB26A904280462AD175
:1058900038493846FDF7E6F90123C6E90783C6F81B
:1058A0001890A0463448DFF8F49002F06DFA002317
:1058B000324889F8003002F0B7F899F80030044611
:1058C00023B92F494FF4D170FDF706FD8CBBB8F119
:1058D000000F35D0336A012B32D138462949FDF704
:1058E000C1F9022084E70346274945F00100FDF78E
:1058F000C6F9D6E725493846FDF7B4F9FFF7DAFED1
:105900004FF001080446002CCCD0AFE720493846C0
:10591000FDF7A8F9FFF7E2FD4FF000080446F2E7B3
:10592000FFF7DCFD044608B11A4974E74FF001089F
:10593000B8E745F001001849FDF794F9032057E74F
:10594000012055E778D5070078D507001C9D002079
:10595000BDB30700C9B4070072B4070080B40700E4
:105960009DB40700DEB30700E8B30700A4B3070047
:10597000E2B4070003B40700409D0020D1540700A3
:1059800068B2070014B5070018B4070060B4070038
:1059900069B40700B3B4070070B50700C1800020E8
:1059A0000A4AD2F800347BB109480023D2F808151E
:1059B000D940C90748BF03F5C07103F1010348BFCF
:1059C00042F82100072BF1D1704700BF00000140D1
:1059D0003546526E08B50748074B0849C01AC0083B
:1059E000000440F00300FDF73DF9BDE80840FFF773
:1059F000D7BF00BF88D5070078D507008AB5070054
:105A000007B5074B00221A601B680193019BFDF745
:105A1000F5F9FCF7ADFF0028FBD103B05DF804FBFE
:105A20000001014037B5194D2B784BBB1848194977
:105A3000194B401AC008D3F80024000440F00300BA
:105A400002B3D3F80445154901902246FDF70EF93B
:105A500040F616529442B8BF1446A4F54864FFF7C6
:105A60009FFF22460E490198FDF700F90D49204697
:105A7000FFF710FD0C4B4FF480321A6001232B709E
:105A800003B030BD0949FDF7EDF8F7E7C28000200B
:105A900088D5070078D507000000014098B50700B9
:105AA000B1B50700D559070000E100E0E3B50700F4
:105AB000034BD3F800340BB1FFF772BF704700BF40
:105AC000000001400023C0E90232C0E900118B88C8
:105AD0001A440261B1F906301A444261088800385C
:105AE00018BF0120704710B542681188034600298D
:105AF00039D002F110014160148A2CB9C2680168E2
:105B0000FFF7E0FF204610BD9078118900F03004C7
:105B1000302C1BD1947C04F03004302C1DD19088A3
:105B20001969091A19610021907810F0300F02BF2D
:105B3000986801309860908A084419690144196195
:105B4000B2F91620114459610120DCE700F0F0049D
:105B5000202C02D150894143E6E700F0C0008028A4
:105B600008BF0421E0E70846CDE770B54668044663
:105B70000D4663681A88AA4204D19B7803F00F038C
:105B8000082B07D12046FFF7AEFF6368B342F0D180
:105B9000002070BD0120FCE743681A44426011B147
:105BA00001399A4201D10120704713F8010B01F825
:105BB000010FF6E72DE9F34183680446884623B9CF
:105BC0000026304602B0BDE8F081036801220DF1E5
:105BD0000701984706460028F2D0A3689DF80750B1
:105BE000013BA3609DF90730002B1ADA05F07F0511
:105BF0000727A368002BE3D0236801220DF10701DA
:105C0000204698470028DBD0A3689DF80720013B79
:105C1000A36002F07F03BB401D43130607F1070793
:105C200002D4C8F80050CCE7232FE2D1C8E770B502
:105C30004268927802F00F01082986B003461FD10E
:105C400003691C6800260CB906B070BD2368267372
:105C50009D68626829466846FFF734FF63680493CD
:105C600004F10C030593AB7803F0C003802B08BF4D
:105C7000231D684608BF0493FFF7D9FFA468E2E735
:105C800012F0C00120D102F0300010280ED15A6964
:105C900011705A6818699378D46803F00F03072BC2
:105CA00009D10146204600F017F8CDE79006F0D55F
:105CB0005B691980C8E71289214614B104F002FB20
:105CC000C2E704F00DFBBFE78029BDD100690021C8
:105CD00092060160B8D5EBE77FB50A4601466846F3
:105CE000FFF7F0FE30B16846FFF7A1FF6846FFF707
:105CF000FAFEF7E707B05DF804FB000030B5044694
:105D000085B01546A9B90268114B9A4211D0102DE1
:105D100006D82A4669462046FFF7F0FF05B030BD99
:105D2000102269462046FFF7E9FF0028F6D0103D13
:105D3000EDE7A368AB4201D20020EFE723682A46D3
:105D4000204698470028F7D0A268521BA260E5E7DA
:105D5000995B0700F7B50E4601A907461546FFF700
:105D600029FFA8B1019A0123D3184FF0000404D2EF
:105D7000B17801F0C001802901D1204608E03189C5
:105D80009942FAD329463846FFF7B8FF019BEC54F5
:105D900003B0F0BD73B50D4601A906461446FFF7E2
:105DA00009FF98B1019AB2F5803F11D2AB7803F0A8
:105DB000C003802B02F102010AD02B898B4207D34A
:105DC0002146304621F8022BFFF798FF02B070BD44
:105DD0000020FBE710B5034C82600022C0E90041BF
:105DE000C26010BD995B07002DE9F341002604460F
:105DF0000F46B0463546A3682BB3236801220DF148
:105E0000070120469847F0B1A3689DF807C0013B01
:105E10000CF07F02C5F12001A360A5F1200302FA76
:105E200003F322FA01F10B43AA401CF0800F46EA6B
:105E3000020643EA080805F1070502D1C7E9006830
:105E400002E0462DD7D1002002B0BDE8F08173B545
:105E50000C4669461646FFF7C7FF68B12389082B31
:105E60000CD1DDE90045C6E90045DDE90023AB4280
:105E700006BFA2420120002002B070BD042B04D155
:105E8000009B33601C460025EFE7022B4FF000001B
:105E900004D1009B33809CB20546E6E7012BEBD191
:105EA000009B337003F0FF04F6E737B50D466946F3
:105EB0001446FFF799FF30B12A89082ADDE900313D
:105EC00003D1C4E9003103B030BD042A18464FEABB
:105ED000E37108D123601A460B468B4206BF82420B
:105EE00001200020EFE7022A04D11BB223801AB25E
:105EF000D317F2E7012A03D15BB223705AB2F7E756
:105F00000020E0E7F7B51F4600233B700D460B70FD
:105F1000136001A904461646FFF74CFE30B9A3688A
:105F200013B901233B70002003B0F0BD019C002C8D
:105F3000F7D0E30804F0070433602C70F4E713B5DE
:105F4000044605291FD8DFE801F0030F151E1E1CAB
:105F5000012201A92046FFF7D1FE18B19DF90430B6
:105F6000002BF5DB02B010BD082200212046FFF710
:105F7000C5FEF7E701A9FFF71DFE0028F2D0019A40
:105F8000F3E70422F1E70020ECE773B50D4601A921
:105F90000446FFF70FFE064618B90026304602B049
:105FA00070BD94E80F0085E80F0001998A42F4D390
:105FB000A960A3685B1AA360F0E700002DE9F04335
:105FC0005768BB7813F0C00489B006468C46154666
:105FD00003D0402C6AD000240CE003F00F025F498C
:105FE00003F03003202B51F8228026D006D8CBB105
:105FF000102B1CD0204609B0BDE8F083302BF9D11E
:106000006B6939881980072A0AD16B6828691A894F
:10601000214604F065F96B682969D868FFF75CFED2
:106020002A6940E02A693946C0470446E2E76B69BD
:1060300001221A702A696968F6E7BCF1020FD5F8E7
:10604000149024D1042A22D804A9FFF79EFF044605
:106050000028C0D0069B2BB16968B9F800304A8986
:106060009A4205D8059B7360069B002BC2D0B2E70D
:1060700008892A6903FB002204A8C04728B1B9F89F
:1060800000300133A9F80030E4E70446EAE7B9F844
:1060900000307A899A429ED92A693989581CA9F810
:1060A000000003FB012269683046BDE7D2F810808A
:1060B000474657F8043B13B9FFF741FFB5E70229FC
:1060C00014D104A9FFF761FF002884D0D8F800306C
:1060D00069683A4604A89847044600283FF47BAF15
:1060E000069B002BF2D1059B736083E7012925D025
:1060F00005292BD000297FF46EAF0C460DF1040961
:1061000001340B2C3FF467AF012249463046FFF7BC
:10611000F5FD00283FF45FAF19F9013B002BEFDBE1
:106120000F4B049301ABCDE9053400230793D8F856
:10613000003069683A4604A8984776E7082201A922
:10614000FFF7DCFD08240028EAD144E704220DEB28
:106150000201FFF7D3FD0424F5E700BF0CB60700EA
:10616000995B07002DE9F04F91B00446002604A882
:10617000CDE90266FFF7A6FCA3683BBBDDE9053469
:1061800004A89D78FFF7AFFC0028F7D115F0300F79
:1061900003D1059B1B8803B10134002C00F0A980BA
:1061A0006309002202A9934240F09C8010AA02EBEE
:1061B000830304F01F0453F8383CC4F120044FF06B
:1061C000FF30E040C31A584258410DE00DF103037F
:1061D00001AA0DF102012046FFF794FE38B99DF89F
:1061E0000330002BCAD1002011B0BDE8F08F019917
:1061F00004A8FFF7BAFC002850D1019BB3427DD31D
:10620000059D059A937803F00F03082B7FD004A80F
:10621000FFF769FC059B9D42F3D14FF0FF36019FCC
:10622000B7426BD3089B9DF802A0D4F808801D6884
:106230004FF00109A368002D5DD098459CD12B68D3
:10624000D3F800B0BBF1000F08D053463A462946B8
:106250002046D8470028C6D0AD68EBE7D3F808B091
:10626000BBF800309F42F7D16A6859460AA8FFF789
:1062700029FC6B680E9305F10C030F939BF8023019
:1062800003F0C003802B04BF2B1D0E930AAA85F8D0
:106290000C9051462046FFF791FEDBE7059B9B786B
:1062A00013F0300F0FD1069A3F2A0CD8510910ABCA
:1062B00003EB810102F01F020123934051F8382CB7
:1062C000134341F8383CE5682DB19DF8022001994F
:1062D00004AB2046A8479DF8021004AA2046FFF709
:1062E0006DFE10E051F8225001357FF47DAF013290
:1062F00059E7012078E798457FF43EAF9DF80210FA
:106300002046FFF71CFE00287FF436AF6BE71688A7
:1063100085E737B50C460546114620460192FFF742
:10632000DBFC019A2146284603B0BDE83040FFF768
:1063300019BF70B586B0CE6801920C4602A9054619
:10634000FFF723FE68B1E06858B1A378019A03F023
:106350003003202B314602A805D1FFF7DAFF039B5B
:106360006B6006B070BDFFF7FDFEF8E7D3B50C46D5
:106370006946FFF739FD80B1DDE9001300274A08BF
:1063800001F0010642EAC37256EA07014FEA5303DD
:106390001CBFD243DB43C4E9002302B0D0BD37B5F4
:1063A0000D4669461446FFF7E1FF68B12B89082BBB
:1063B0000CD1DDE90001C4E90001DDE900238B42D5
:1063C00006BF82420120002003B030BD042B03D160
:1063D00000982060C117F0E7022B04D1BDF900003E
:1063E000208000B2F6E7012B04D19DF90000207057
:1063F00040B2EFE70020E7E713B504220C460DEBAF
:106400000201FFF77BFC08B1019B236002B010BDC5
:106410001146FFF7F1BF13B508220C466946FFF796
:106420006DFC18B1DDE90023C4E9002302B010BD02
:106430001146FFF7F0BF10B513681F2B144607D99C
:1064400000220830FEF709F808B92023236010BDA8
:1064500048F21450FBE70830FDF7DCBF0830FDF7C9
:10646000A9BF007800F0010070470000062810B5B1
:10647000044602D1002001F04DFC044B1B681BB107
:106480002046BDE81040184710BD00BFC480002062
:1064900038B5104B104C1860104B1149E41AE40841
:1064A000240444F00300FCF7DDFB0020FFF7DEFFCF
:1064B0000C4801F0F7FB054620B9BDE83840094813
:1064C00001F0CAB90246084944F00100FCF7CEFBCE
:1064D000284638BDC480002078D5070078D507004D
:1064E000FCB707006D6407000FB807006CDF70474A
:1064F0006DDF704772DF704773DF704774DF70477E
:1065000075DF704776DF70477ADF70477CDF704752
:106510007DDF70477FDF704786DF70478FDF704712
:1065200090DF7047A8DF7047AADF7047ADDF704784
:10653000AEDF7047B0DF7047B1DF7047B5DF70473F
:1065400062DF704766DF704713DF70477FB5002357
:10655000CDF80B308DF80F300A4BADF806109B8943
:10656000ADF8083001238DF80A300DF10603CDE9AE
:106570000430054B02A91888FFF7DAFF07B05DF871
:1065800004FB00BF32910020EE57002010B5094BEC
:106590000949044609481B1ADB081B04224643F03C
:1065A0000400FCF763FB21460548BDE81040FDF7F9
:1065B00015B800BF90D5070039B8070078D5070097
:1065C000FCD5070070B518228CB00DEB020000213D
:1065D00003F086FE282308932348244B2449254CA6
:1065E000C01AC0080004012540F004008DF81850BE
:1065F0008DF82D50FCF736FB1623ADF8063000233E
:10660000CDE9033305930223092606222370237163
:106610005923A27063710322FE230DF10601A01914
:106620000294ADF80C606570E270A371FFF770FF23
:10663000B8B9BDF8063026725A19E271BDF80C20BF
:106640000D4C134402A906AA2046ADF80C30FFF702
:1066500051FF30B92078FFF751FF20782946FFF726
:106660004BFF0CB070BD00BF90D5070078D5070078
:106670004BB8070046910020EC5700202DE9F0416F
:106680000388242B8EB0044652D813B90EB0BDE84F
:10669000F081013B232BF9D801A252F823F000BF6F
:1066A000076A07008D6607008D6607008D66070084
:1066B0008D6607008D6607008D6607008D660700F2
:1066C0008D6607008D6607008D6607008D660700E2
:1066D0008D6607008D6607008D66070061670700FD
:1066E000A367070039690700E5680700A16B070089
:1066F0008D6607008D6607008D6607008D660700B2
:106700008D660700C36B07008D6607008D66070066
:106710008D6607008D660700756907008D660700A6
:10672000CF690700B1690700A7680700CB680700B9
:10673000503B9AB2062AA9D8062BA7D801A252F834
:1067400023F000BFCD670700856A0700C36B070011
:106750008D6607008D6607004F680700F369070024
:10676000AC4BAD4DAD49ED1AED082D0445F00400DC
:10677000FCF778FAAA4BA2881A80AA4A12681C462B
:106780000AB101209047A8492088FFF7B9FE0246C8
:1067900000283FF47BAFA54945F00100FCF766FAFD
:1067A00074E79F4B4FF6FF721A80A14B1B685A0784
:1067B00004D4FFF707FF08B1FEF7B8F9994B1B683F
:1067C000002B3FF463AF022098475FE7994FE288C0
:1067D000BB889A427FF45AAF97488F4DFCF7D0FEA2
:1067E0008C4BED1AED082D04064628B9934945F067
:1067F0000200FCF737FA49E7F4230093238A904913
:10680000024645F00400FCF744FA228A04F1120122
:10681000304603F057FD1822002108A803F060FD60
:1068200008238DF82030874B0A93874B0997CDE9D1
:106830000B3608A8238AADF8343000F0EDFF0028AD
:106840003FF424AF7C483146FCF7C8FE1EE7E288DF
:10685000F62A24D8D31E9B0723D0D31F9BB2013B1B
:10686000594201F0030103F0030302F1FF3458BF62
:106870004B42E31A9CB2674B67487449C01AC00880
:106880000004234640F00400FCF7F9F9644B21466C
:106890001888FFF753FE00283FF4F8AE85E0F72490
:1068A000E9E71446E7E75B4B5B486949C01AC00853
:1068B000000440F00400FCF7D5F90022A08808A9E4
:1068C000CDE90822FFF72CFEE5E7524B52486289DA
:1068D0006049C01AC0080004E38940F00400FCF7D6
:1068E000CEF9D3E64B4B4C4C5B494D4DE41AE408D2
:1068F000240444F004042046FCF7B4F90023ADF866
:1069000022300223ADF82030288806AB08AA42F6D0
:1069100005210993FFF70AFE08B1FEF707F9BDF854
:1069200018204E492046FCF7A1F9002328881A4672
:106930008521FFF7EFFDAEE7364B37484849C01ACF
:10694000C008000440F004000390FCF78BF9628952
:1069500044490398FCF78AF9228943490398FCF7D4
:1069600085F9A28941490398FCF780F9E2894049F9
:10697000039813E7274B284D3E49ED1AED082D04E7
:1069800045F00400FCF76EF9254B04F10801188866
:10699000FFF7B6FD044600283FF478AE02463649BC
:1069A00045F00100FCF762F92046FEF7BFF86DE6FE
:1069B000184B19483149C01AC008237A00930004C3
:1069C000637AA27A40F00400FCF763F95EE6114BAB
:1069D00011482B49C01AC008000440F00400FCF71D
:1069E00041F90023A088ADF8203008A9FFF796FDF3
:1069F00051E7A379002B7FF449AE094B1321188886
:106A0000FFF780FD47E7064B00211888FFF79AFD46
:106A100041E700BF78D5070090D507005AB80700B6
:106A2000EE5700206C91002086BD070064B8070077
:106A30006891002032910020FCD5070092B8070031
:106A4000B1B80700C56C07008D650700D1B8070015
:106A500017B9070048B9070086B90700AEB90700A3
:106A6000D1B90700F8B907000EBA070024BA070029
:106A700036BA07004BBA07007ABA0700AFBA070068
:106A8000E9BA0700A379002B3FF400AE022B7FF494
:106A9000FDAD554920898A8990420E467FF4F6ADB6
:106AA000A27B012A7FF4F2AD00220120CDE9082269
:106AB0008DF82600208A4D4DADF82800608AADF88B
:106AC0002A0004F114000B90ADF81A20098A2888D6
:106AD0008DF8203005AF06AAADF818300797FFF7FC
:106AE00025FDA84660B93846FFF7BBFC40B940F227
:106AF000FD132888ADF8243008A9FFF71BFDC5E574
:106B0000002308A9B8F80000ADF82430FFF712FD03
:106B1000014600287FF4BAAD182208A803F0E0FB74
:106B2000237D334A8DF82030022B09960A9224D017
:106B3000062B10D0012B10D12E4B1A882E4B1A8009
:106B4000637DD4F816200C93012B0D9205D12B48B0
:106B500001F0E0F801E0637D0C9308A800F05CFE12
:106B600000283FF493AD264A264B27499B1ADB08A1
:106B70001B04024643F0010010E6214B2148234943
:106B8000C01AC008000440F00400FCF76BF8A27DB6
:106B9000637D43EA0223174A1380174A1380DCE718
:106BA000174B18481A49C01AC008000440F00400E6
:106BB000FCF758F80023A0881A461946FFF7ACFCEA
:106BC00069E60023A0881A461946FFF7B5FC08B10C
:106BD000FDF7ACFF0B480A4B0E49C01AC008000471
:106BE00040F0040005E600BF32910020EE5700207F
:106BF000C56C0700709100207291002064D50700D9
:106C000078D5070090D5070024BB070012BB07000A
:106C100058BB07007EBB070070B5204E346814F0E7
:106C2000010432D01E4B984236D01E4B1E4D1F4CD5
:106C30001F49ED1AED082D0445F004052846FCF720
:106C400011F822884FF6FF739A4220D0194928463E
:106C5000FCF708F83368208843F0040313213360FD
:106C6000FFF750FC044680B9134EC82446F00106D5
:106C70004FF47A40B047013CFAD102F01BF90446C8
:106C800018B90E492846FBF7EDFF204670BD0C4BA6
:106C90001878FFF733FCF0E70024F6E7689100204E
:106CA00064D5070078D5070090D50700EE5700207F
:106CB000A0BB0700BDBB070080BD0700CCBB070021
:106CC000EC57002030B50D4687B0044620B9464940
:106CD00040F28710FCF700FB25B943494FF4C4701C
:106CE000FCF7FAFA00210D2202A8019103F0F8FA4C
:106CF0002378082B0BD13D4A3D4913880988013B75
:106D00009BB2138031B32BBB0323118023706378B4
:106D100022788DF805206021012B8DF804108DF864
:106D2000063019D033493448401AC00800043349AA
:106D300040F00200FBF7A3FF63780B2B12D100F0A9
:106D4000A9FA8DF80700002000F09EFA042101A89E
:106D5000FFF7FCFB07B030BD062A05D0082A29D072
:106D6000032A27D00321F2E7E1688DF80710D4E960
:106D70000123080A8DF80800080C090E8DF80A1086
:106D8000110A8DF80B208DF80C10110C120E8DF8D5
:106D90000E201A0A8DF80F308DF810201A0C1B0ED9
:106DA0008DF80D108DF809008DF811208DF8123036
:106DB0000F21CCE7D4E90123110A8DF807208DF8C3
:106DC0000810110C120E8DF80A201A0A8DF80B30DB
:106DD0008DF80C201A0C1B0E8DF809108DF80D2063
:106DE0008DF80E300B21B2E7E5BB07007291002051
:106DF0007091002078D5070090D507002ABC0700C5
:106E00002DE9F043054695B020B9464940F24F4080
:106E1000FCF762FA444B4FF6FF721A8001204FF6DE
:106E200059632A4602A98DF80A00ADF80830FFF729
:106E300079FB0446002871D13C4B04AA03F11007EA
:106E4000164618685968144603C40833BB422246E4
:106E5000F7D1A91C3046FFF773FB044600285DD12B
:106E600001461C220DA803F03BFA9DF83430ADF822
:106E7000044043F004038DF834300223ADF80C30A5
:106E8000AB788DF80E3004F0F80343F003038DF86F
:106E90000630F423CDE90A44ADF82C302B4601AE80
:106EA00033F8040B0C944FF0110903AF08AA0DA995
:106EB000CDE908768DF80590FFF736FBA04604462D
:106EC00060BB01461C220DA803F00AFA9DF834307D
:106ED000ADF8044023F0180343F018038DF8343064
:106EE0000123ADF80C30AB788DF80E301723CDE9C7
:106EF0000A44ADF82C302B4608F0E80833F80C0BA8
:106F00000C9448F0130808AA0DA9CDE908768DF86D
:106F100005908DF80680FFF707FB0446204615B064
:106F2000BDE8F083E5BB0700EE57002061BD070018
:106F3000F0B5524E336813F0010485B0074640F0B7
:106F40009B804F4B4F4D5049ED1AED082D0445F0F5
:106F500004052846FBF786FE4C4B4D481F60FCF7A6
:106F6000D1FA029400F0B1F90446002873D1494ADD
:106F700049492846FBF77AFE4648FFF7E5FA0446FA
:106F8000002868D145492846FBF76CFE01F054FF04
:106F9000044600285FD102A802F01CF8044600282D
:106FA00059D13F492846FBF75DFE02A9012002F0B6
:106FB0001BF8044600284ED13A492846FBF752FEFA
:106FC00002A802F0E1F80446002844D100F032FEA5
:106FD000002843D0344800F021FE336843F0020318
:106FE0003360112302A88DF80430FFF781FA0446BC
:106FF00088BB9DF8093002A801338DF80930FFF7EE
:1070000075FA044638BB33689B072CD5264C2749B4
:10701000A3692846221DFBF732FEA069211D82B21A
:1070200001A8FFF773FA0446A8B92148FFF76CFAE4
:10703000044680B91F48FFF7E3FE044658B9FFF73E
:10704000C1FA044638B933681B4943F001032846A6
:107050003360FBF707FE204605B0F0BD1749284610
:10706000FBF700FEBDE716492846FBF7FBFD154878
:1070700003F046F91349D2E70024ECE768910020B9
:1070800078D5070090D5070059BC07006C91002007
:10709000FCD507000020070078BC070098BC07005B
:1070A000ADBC0700C4BC0700C8800020F6BC0700C8
:1070B00086BD07003291002036BD0700DCBC07000A
:1070C00017BD070051BC070030B51A490B6885B0E1
:1070D00004460BB1013B0B601748184A63682578DA
:1070E000121AD208120442F004008BB90B68144A39
:1070F00014490093012D08BF0A46A3681249FBF703
:10710000C8FD63699BB1E06805B0BDE83040184731
:107110000A68029222690192A2680A490092084A0A
:10712000012D08BF0A460949FBF7CDFDE9E705B087
:1071300030BD00BF7491002078D5070098D50700B6
:1071400094BD07008EBD07009ABD0700C0BD0700B3
:1071500008B502460B4B0C481B1ADB081B0443F016
:1071600004004AB10949FBF77DFD09490948BDE81A
:1071700008400022FCF774BC0749FBF773FD074980
:10718000F4E700BF98D5070078D50700FCBD0700DD
:1071900038A607006058002022BE07000CA6070092
:1071A0002DE9F7439846174C174BDFF86C90E41A1B
:1071B000E408D9F800302404CDE9002305460B4645
:1071C0000E4617461149024644F00400FBF76DFDD8
:1071D00029460F48CDF800803B463246FCF758FC64
:1071E000054640B9D9F800300133C9F800302846C7
:1071F00003B0BDE8F0830246064944F00200FBF705
:1072000035FDF4E798D5070078D507004ABE07009A
:10721000605800208DBE0700749100202DE9F341D5
:10722000134B144C144FE41AE4083B6800932404F5
:1072300005460B460E4690461049024644F00400AF
:10724000FBF727FD29460E4843463246FCF770FC03
:10725000054630B93B6801333B60284602B0BDE8C3
:10726000F0810246074944F00200FBF7FFFCF4E717
:1072700078D5070098D5070074910020BABE0700A2
:1072800060580020F7BE0700014B18700B207047B4
:1072900078910020024B002218781A70704700BFC6
:1072A0007891002018DF704730B585B00546102270
:1072B0000C466846002103F013F8A40868460195BF
:1072C0000294FFF7EFFF05B030BD1FB50023CDE9F5
:1072D00001330393684602230093FFF7E3FF05B0F1
:1072E0005DF804FB4FF000534FF480521A60002009
:1072F00070470000084B09480949C01A10B5C0087A
:10730000000440F00400FBF7ADFC064BBDE8104064
:107310001B680620184700BF78D50700A0D50700D6
:1073200032BF0700849100200A2803D90B38C0B26D
:10733000FFF7AABF7047000070B5054686B0002071
:10734000FCF732FC014690B1244A18212846FBF78D
:10735000B3FE50B1224A234B23499B1ADB081B047E
:10736000024643F00100FBF781FC06B070BD182215
:10737000684602F0B5FF04231A4C8DF80030184B14
:107380001A4EE41A1A4B1A6D3368E40824049A4220
:1073900044F004041AD117492046FBF763FC164B4E
:1073A0003168186801F02CFC8DF80100FFF7BCFF74
:1073B000D5E901138DF80100684698470F4800F0A1
:1073C00033FB9DF801200E492046CCE701238DF8C0
:1073D00001306846D5E901139847F2E73973070091
:1073E00078D50700A0D5070066BF07007C91002074
:1073F0001C9D00208FBF070080910020F5720700C0
:10740000BEBF07002DE9F041836888B0044623B968
:10741000984940F2CF20FBF75FFF1822002102A815
:1074200002F05EFF0123944E8DF80930934B2278D1
:107430008DF80820F61AF6083604531E46F00405A7
:107440000B2B00F2C881DFE813F02C000C002C009D
:107450002C00C6012C00C6012C00C601C601C601C5
:10746000110087492846FBF7FDFB07E028468549C0
:10747000FBF7F8FB844B07201B6898479DF8092011
:1074800082492846FBF7F2FBD4E9011302A898478A
:107490009DF80930012B00F088817B4B05201B688B
:1074A00082E1062A7A4F01D0012A01D122693A707D
:1074B0003A78012A09D0022A74D0764946F00100B0
:1074C000FBF7D0FB00233B70C9E0072B64D8DFE853
:1074D00003F004631443635B631E6F492846FBF7A4
:1074E000C1FB694B03201B689847606901F078F87D
:1074F000FFF71AFF8DF80900C0E768492846FBF737
:10750000B1FB674BDA6B1B6C03920493B6E72369FC
:1075100023B9584940F21310FBF7DEFEA38A23B9C2
:1075200054494FF48A70FBF7D7FE5E492846FBF7B3
:1075300099FBA18A206901F06BF8FFF7F5FE584B23
:107540008DF80900DA6B1B6C0493E3680392002B3F
:1075500094D02069984791E753492846FBF782FB6E
:107560005249534801F0D2F8FFF7DEFE01288DF8AA
:10757000090083D1002000F057FA08B94D4971E79E
:107580000A238DF8093079E74B492846FBF76AFB57
:107590004FF400730593B4E736494FF4BC70FBF722
:1075A0009BFE6BE7072B00F21281DFE813F0080067
:1075B0001001D200E10010010101100197003F49C4
:1075C0002846FBF74FFB01F053F830B93C4946F031
:1075D0000100FBF747FB0823D3E7626932B9394959
:1075E00046F00100FBF73EFB0323CAE7C2F30B039F
:1075F00043B12B4B2D495B6D096813448B4201D07D
:107600003149EDE7B2F5805F06D9304946F0010017
:10761000FBF728FB0423B4E7214F24497B6D09685D
:10762000D018884206D9009146F001002849FBF79E
:1076300030FBD0E77A64FA6CBA643B651C4A3B6362
:107640006169106801F6FF710022090B1844FFF709
:10765000E5FD30B11F4946F00100FBF703FB0523B0
:107660008FE7BB6C00933B6D7A6C1B492846FBF798
:1076700010FB03E7E6BF0700A0D5070078D5070099
:107680002FC0070053C0070084910020BEBF070031
:10769000F0570020EBC307006BC0070095C0070040
:1076A0001C9D0020B9C00700E2C007007C910020AB
:1076B000809100200DC1070032C107005CC10700A6
:1076C00083C10700B8C10700D1C10700F2C107009C
:1076D00016C2070087C207009EC20700414928461C
:1076E000FBF7C0FA00F0C4FF00283FF474AF3E4F30
:1076F000A18AD7E914329B1A7A6C0B44934201D9C0
:107700003A496DE73A4A3B6B1268206903EB02087D
:1077100007F14802FBF7C4FDE368064623B9354983
:107720004FF4F870FBF7D8FDE368A28A2169404660
:10773000FFF736FD08B1E3680BE7A28A3B6B0496BE
:1077400013443B63A38A3A6DBE6413443B650393C1
:1077500094E6254E28492846FBF784FAB36C326D2F
:1077600026492846FBF78BFAB36C0493336DEEE79A
:1077700028462349FBF776FA1B48D0E91473426C7C
:10778000FB1A934205D01F4946F00100FBF777FA38
:1077900021E7836CC3640021416447652046FFF7FD
:1077A000CBFD194B1B680420984708B0BDE8F08159
:1077B00016492846FBF756FA0B4B4FF480519A6C4A
:1077C0001B6D059100910492114903934EE70949FD
:1077D00040F29720E3E60F4946F00300FBF746FA34
:1077E0000223CEE6D9C207001C9D0020FFC207007D
:1077F00080910020E6BF070016C3070037C30700CB
:107800004DC3070075C307008491002099C307008A
:10781000C0C307000BC4070010B583688BB10A4AC8
:107820001821FBF749FC044648B10848084B0949B0
:107830001B1ADB081B0443F00200FBF713FA204677
:1078400010BD0724FBE700BF0574070078D50700CB
:10785000A0D507002AC4070038B50546C0B10120ED
:10786000FFF776FC044648B900F0ACFE00F000FFDC
:1078700030B9084B00201D60FFF706FD204638BDDB
:107880000549064800F042FF0128F2D00324F5E73D
:107890000724F3E7849100207C9100208091002050
:1078A00010B50022044658210430FBF7F9FC236888
:1078B0001B1A5842584110BD2DE9F74317464FF4A3
:1078C000607298461F4D0646894602F0EDFC1E4B3D
:1078D000ED1AED0804462D0445F0040054B91B4987
:1078E000FBF7C0F91FB9002003B0BDE8F0832046C4
:1078F000B847F8E716490190FBF7B4F91549019824
:107900003246FBF7B3F9002201213046FFF786FC2F
:1079100030B1114945F00100FBF7A4F90320E3E77A
:107920004FF460724946404602F0CCFC3B464FF4AF
:10793000607241463046FFF733FC0028D3D0074938
:10794000E8E700BFA8D5070078D507005AC40700AC
:10795000A4C40700B8C40700D8C40700FBC40700CC
:1079600070B50D4C0546002258212046FBF798FCC7
:10797000002244F8040CC32104F51770FBF790FCB7
:10798000261FC4F858022A463146044B0448BDE875
:107990007040FFF791BF00BF209D0020889100201C
:1079A00000F00700F8B5164B164C174EE41AE40821
:1079B0000D46240432681549074644F00300FBF7DE
:1079C00055F92B68013313D1114940F27910FBF7B7
:1079D00083FC3A460F4B30682946FFF76DFF02469D
:1079E00060B144F001000C49BDE8F840FBF73EB936
:1079F0002846FFF755FF0028EBD1E5E7F8BD00BFAB
:107A000078D50700A8D50700F457002022C5070045
:107A10004CC507000895002092C507000149FFF7F3
:107A2000C1BF00BF00F0070038B505460020FFF7D2
:107A300097FF044618B903492846FFF7B3FF2046CD
:107A400038BD00BF1C9D00202DE9F047524B534D1F
:107A50005349ED1AED082D0445F00408044640464C
:107A6000FBF700F92046FFF773FB024638B14D499A
:107A700045F00100FBF7FAF80320BDE8F0874A481B
:107A8000036801335FD0FFF70BFF8146474E484F35
:107A9000D6F800A0DAF80030013377D05046FFF76F
:107AA000FFFE044670B1DAF80440012C0AD000222F
:107AB000C3210AF51870FBF7F3FBDAF85C42231ACE
:107AC0005C425C41B9F1000F3FD03A494046FBF7B8
